{
  "_format": "hh-sol-artifact-1",
  "contractName": "ECMcoinLocking",
  "sourceName": "contracts/Locking.sol",
  "abi": [
    {
      "inputs": [
        {
          "internalType": "address",
          "name": "token_",
          "type": "address"
        }
      ],
      "stateMutability": "nonpayable",
      "type": "constructor"
    },
    {
      "inputs": [],
      "name": "InsufficientAmount",
      "type": "error"
    },
    {
      "inputs": [],
      "name": "NothingToClaim",
      "type": "error"
    },
    {
      "inputs": [
        {
          "internalType": "address",
          "name": "owner",
          "type": "address"
        }
      ],
      "name": "OwnableInvalidOwner",
      "type": "error"
    },
    {
      "inputs": [
        {
          "internalType": "address",
          "name": "account",
          "type": "address"
        }
      ],
      "name": "OwnableUnauthorizedAccount",
      "type": "error"
    },
    {
      "inputs": [],
      "name": "ReentrancyGuardReentrantCall",
      "type": "error"
    },
    {
      "inputs": [
        {
          "internalType": "address",
          "name": "token",
          "type": "address"
        }
      ],
      "name": "SafeERC20FailedOperation",
      "type": "error"
    },
    {
      "anonymous": false,
      "inputs": [
        {
          "indexed": true,
          "internalType": "address",
          "name": "previousOwner",
          "type": "address"
        },
        {
          "indexed": true,
          "internalType": "address",
          "name": "newOwner",
          "type": "address"
        }
      ],
      "name": "OwnershipTransferred",
      "type": "event"
    },
    {
      "anonymous": false,
      "inputs": [
        {
          "indexed": true,
          "internalType": "address",
          "name": "user",
          "type": "address"
        },
        {
          "indexed": true,
          "internalType": "uint256",
          "name": "lockupId",
          "type": "uint256"
        },
        {
          "indexed": false,
          "internalType": "uint256",
          "name": "amount",
          "type": "uint256"
        }
      ],
      "name": "TokensClaimed",
      "type": "event"
    },
    {
      "anonymous": false,
      "inputs": [
        {
          "indexed": true,
          "internalType": "address",
          "name": "user",
          "type": "address"
        },
        {
          "indexed": true,
          "internalType": "uint256",
          "name": "lockupId",
          "type": "uint256"
        },
        {
          "indexed": false,
          "internalType": "uint256",
          "name": "amount",
          "type": "uint256"
        },
        {
          "indexed": false,
          "internalType": "uint256",
          "name": "start",
          "type": "uint256"
        },
        {
          "indexed": false,
          "internalType": "uint256",
          "name": "unlock",
          "type": "uint256"
        }
      ],
      "name": "TokensLocked",
      "type": "event"
    },
    {
      "stateMutability": "payable",
      "type": "fallback"
    },
    {
      "inputs": [],
      "name": "LOCKUP_DURATION",
      "outputs": [
        {
          "internalType": "uint256",
          "name": "",
          "type": "uint256"
        }
      ],
      "stateMutability": "view",
      "type": "function"
    },
    {
      "inputs": [
        {
          "internalType": "uint256",
          "name": "lockupId",
          "type": "uint256"
        }
      ],
      "name": "claim",
      "outputs": [],
      "stateMutability": "nonpayable",
      "type": "function"
    },
    {
      "inputs": [
        {
          "internalType": "address",
          "name": "user",
          "type": "address"
        },
        {
          "internalType": "uint256",
          "name": "lockupId",
          "type": "uint256"
        }
      ],
      "name": "getLockup",
      "outputs": [
        {
          "components": [
            {
              "internalType": "uint256",
              "name": "amount",
              "type": "uint256"
            },
            {
              "internalType": "uint256",
              "name": "start",
              "type": "uint256"
            },
            {
              "internalType": "uint256",
              "name": "unlock",
              "type": "uint256"
            },
            {
              "internalType": "bool",
              "name": "claimed",
              "type": "bool"
            }
          ],
          "internalType": "struct ECMcoinLocking.Lockup",
          "name": "",
          "type": "tuple"
        }
      ],
      "stateMutability": "view",
      "type": "function"
    },
    {
      "inputs": [
        {
          "internalType": "address",
          "name": "user",
          "type": "address"
        }
      ],
      "name": "getLockupCount",
      "outputs": [
        {
          "internalType": "uint256",
          "name": "",
          "type": "uint256"
        }
      ],
      "stateMutability": "view",
      "type": "function"
    },
    {
      "inputs": [
        {
          "internalType": "uint256",
          "name": "amount",
          "type": "uint256"
        }
      ],
      "name": "lockTokens",
      "outputs": [],
      "stateMutability": "nonpayable",
      "type": "function"
    },
    {
      "inputs": [],
      "name": "owner",
      "outputs": [
        {
          "internalType": "address",
          "name": "",
          "type": "address"
        }
      ],
      "stateMutability": "view",
      "type": "function"
    },
    {
      "inputs": [],
      "name": "renounceOwnership",
      "outputs": [],
      "stateMutability": "nonpayable",
      "type": "function"
    },
    {
      "inputs": [
        {
          "internalType": "address",
          "name": "newOwner",
          "type": "address"
        }
      ],
      "name": "transferOwnership",
      "outputs": [],
      "stateMutability": "nonpayable",
      "type": "function"
    },
    {
      "inputs": [
        {
          "internalType": "address",
          "name": "",
          "type": "address"
        },
        {
          "internalType": "uint256",
          "name": "",
          "type": "uint256"
        }
      ],
      "name": "userLockups",
      "outputs": [
        {
          "internalType": "uint256",
          "name": "amount",
          "type": "uint256"
        },
        {
          "internalType": "uint256",
          "name": "start",
          "type": "uint256"
        },
        {
          "internalType": "uint256",
          "name": "unlock",
          "type": "uint256"
        },
        {
          "internalType": "bool",
          "name": "claimed",
          "type": "bool"
        }
      ],
      "stateMutability": "view",
      "type": "function"
    },
    {
      "inputs": [
        {
          "internalType": "address",
          "name": "token",
          "type": "address"
        },
        {
          "internalType": "uint256",
          "name": "amount",
          "type": "uint256"
        }
      ],
      "name": "withdrawERC20",
      "outputs": [],
      "stateMutability": "nonpayable",
      "type": "function"
    },
    {
      "inputs": [
        {
          "internalType": "uint256",
          "name": "amount",
          "type": "uint256"
        }
      ],
      "name": "withdrawETH",
      "outputs": [],
      "stateMutability": "nonpayable",
      "type": "function"
    },
    {
      "stateMutability": "payable",
      "type": "receive"
    }
  ],
  "bytecode": "0x60a060405234801561001057600080fd5b506040516117183803806117188339818101604052810190610032919061028c565b33600073ffffffffffffffffffffffffffffffffffffffff168173ffffffffffffffffffffffffffffffffffffffff16036100a55760006040517f1e4fbdf700000000000000000000000000000000000000000000000000000000815260040161009c91906102c8565b60405180910390fd5b6100b48161016560201b60201c565b5060018081905550600073ffffffffffffffffffffffffffffffffffffffff168173ffffffffffffffffffffffffffffffffffffffff160361012b576040517f08c379a000000000000000000000000000000000000000000000000000000000815260040161012290610340565b60405180910390fd5b8073ffffffffffffffffffffffffffffffffffffffff1660808173ffffffffffffffffffffffffffffffffffffffff168152505050610360565b60008060009054906101000a900473ffffffffffffffffffffffffffffffffffffffff169050816000806101000a81548173ffffffffffffffffffffffffffffffffffffffff021916908373ffffffffffffffffffffffffffffffffffffffff1602179055508173ffffffffffffffffffffffffffffffffffffffff168173ffffffffffffffffffffffffffffffffffffffff167f8be0079c531659141344cd1fd0a4f28419497f9722a3daafe3b4186f6b6457e060405160405180910390a35050565b600080fd5b600073ffffffffffffffffffffffffffffffffffffffff82169050919050565b60006102598261022e565b9050919050565b6102698161024e565b811461027457600080fd5b50565b60008151905061028681610260565b92915050565b6000602082840312156102a2576102a1610229565b5b60006102b084828501610277565b91505092915050565b6102c28161024e565b82525050565b60006020820190506102dd60008301846102b9565b92915050565b600082825260208201905092915050565b7f546f6b656e20616464726573732063616e6e6f74206265207a65726f00000000600082015250565b600061032a601c836102e3565b9150610335826102f4565b602082019050919050565b600060208201905081810360008301526103598161031d565b9050919050565b60805161138f61038960003960008181610390015281816104d70152610749015261138f6000f3fe6080604052600436106100a05760003560e01c80638da5cb5b116100645780638da5cb5b14610189578063a1db9782146101b4578063b379c89a146101dd578063f0ed024f14610208578063f14210a614610245578063f2fde38b1461026e576100a1565b8063379607f5146100a35780636814ce66146100cc5780636e27d8891461010c5780636f672c6414610135578063715018a614610172576100a1565b5b005b3480156100af57600080fd5b506100ca60048036038101906100c59190610e01565b610297565b005b3480156100d857600080fd5b506100f360048036038101906100ee9190610e8c565b610433565b6040516101039493929190610ef6565b60405180910390f35b34801561011857600080fd5b50610133600480360381019061012e9190610e01565b61048d565b005b34801561014157600080fd5b5061015c60048036038101906101579190610f3b565b6106ae565b6040516101699190610f68565b60405180910390f35b34801561017e57600080fd5b506101876106fa565b005b34801561019557600080fd5b5061019e61070e565b6040516101ab9190610f92565b60405180910390f35b3480156101c057600080fd5b506101db60048036038101906101d69190610e8c565b610737565b005b3480156101e957600080fd5b506101f261080c565b6040516101ff9190610f68565b60405180910390f35b34801561021457600080fd5b5061022f600480360381019061022a9190610e8c565b610813565b60405161023c9190611020565b60405180910390f35b34801561025157600080fd5b5061026c60048036038101906102679190610e01565b6108c6565b005b34801561027a57600080fd5b5061029560048036038101906102909190610f3b565b6109d1565b005b61029f610a57565b6000600260003373ffffffffffffffffffffffffffffffffffffffff1673ffffffffffffffffffffffffffffffffffffffff16815260200190815260200160002082815481106102f2576102f161103b565b5b906000526020600020906004020190508060030160009054906101000a900460ff16806103225750806002015442105b80610331575060008160000154145b15610368576040517f969bf72800000000000000000000000000000000000000000000000000000000815260040160405180910390fd5b60018160030160006101000a81548160ff0219169083151502179055506103d43382600001547f000000000000000000000000000000000000000000000000000000000000000073ffffffffffffffffffffffffffffffffffffffff16610a9d9092919063ffffffff16565b813373ffffffffffffffffffffffffffffffffffffffff167f9923b4306c6c030f2bdfbf156517d5983b87e15b96176da122cd4f2effa4ba7b836000015460405161041f9190610f68565b60405180910390a350610430610b1c565b50565b6002602052816000526040600020818154811061044f57600080fd5b9060005260206000209060040201600091509150508060000154908060010154908060020154908060030160009054906101000a900460ff16905084565b610495610a57565b600081036104cf576040517f5945ea5600000000000000000000000000000000000000000000000000000000815260040160405180910390fd5b61051c3330837f000000000000000000000000000000000000000000000000000000000000000073ffffffffffffffffffffffffffffffffffffffff16610b25909392919063ffffffff16565b6000429050600062ed4e00826105329190611099565b9050600260003373ffffffffffffffffffffffffffffffffffffffff1673ffffffffffffffffffffffffffffffffffffffff168152602001908152602001600020604051806080016040528085815260200184815260200183815260200160001515815250908060018154018082558091505060019003906000526020600020906004020160009091909190915060008201518160000155602082015181600101556040820151816002015560608201518160030160006101000a81548160ff02191690831515021790555050506001600260003373ffffffffffffffffffffffffffffffffffffffff1673ffffffffffffffffffffffffffffffffffffffff1681526020019081526020016000208054905061064f91906110cd565b3373ffffffffffffffffffffffffffffffffffffffff167fa2e3c0f7de988ae3bbc6bbd90484543ee1f08d1534bb75c6cf1337a7da7d9c5185858560405161069993929190611101565b60405180910390a350506106ab610b1c565b50565b6000600260008373ffffffffffffffffffffffffffffffffffffffff1673ffffffffffffffffffffffffffffffffffffffff168152602001908152602001600020805490509050919050565b610702610ba7565b61070c6000610c2e565b565b60008060009054906101000a900473ffffffffffffffffffffffffffffffffffffffff16905090565b61073f610ba7565b610747610a57565b7f000000000000000000000000000000000000000000000000000000000000000073ffffffffffffffffffffffffffffffffffffffff168273ffffffffffffffffffffffffffffffffffffffff16036107d5576040517f08c379a00000000000000000000000000000000000000000000000000000000081526004016107cc906111bb565b60405180910390fd5b61080033828473ffffffffffffffffffffffffffffffffffffffff16610a9d9092919063ffffffff16565b610808610b1c565b5050565b62ed4e0081565b61081b610d9c565b600260008473ffffffffffffffffffffffffffffffffffffffff1673ffffffffffffffffffffffffffffffffffffffff168152602001908152602001600020828154811061086c5761086b61103b565b5b90600052602060002090600402016040518060800160405290816000820154815260200160018201548152602001600282015481526020016003820160009054906101000a900460ff161515151581525050905092915050565b6108ce610ba7565b6108d6610a57565b80471015610919576040517f08c379a000000000000000000000000000000000000000000000000000000000815260040161091090611227565b60405180910390fd5b60003373ffffffffffffffffffffffffffffffffffffffff168260405161093f90611278565b60006040518083038185875af1925050503d806000811461097c576040519150601f19603f3d011682016040523d82523d6000602084013e610981565b606091505b50509050806109c5576040517f08c379a00000000000000000000000000000000000000000000000000000000081526004016109bc906112d9565b60405180910390fd5b506109ce610b1c565b50565b6109d9610ba7565b600073ffffffffffffffffffffffffffffffffffffffff168173ffffffffffffffffffffffffffffffffffffffff1603610a4b5760006040517f1e4fbdf7000000000000000000000000000000000000000000000000000000008152600401610a429190610f92565b60405180910390fd5b610a5481610c2e565b50565b600260015403610a93576040517f3ee5aeb500000000000000000000000000000000000000000000000000000000815260040160405180910390fd5b6002600181905550565b610b17838473ffffffffffffffffffffffffffffffffffffffff1663a9059cbb8585604051602401610ad09291906112f9565b604051602081830303815290604052915060e01b6020820180517bffffffffffffffffffffffffffffffffffffffffffffffffffffffff8381831617835250505050610cf2565b505050565b60018081905550565b610ba1848573ffffffffffffffffffffffffffffffffffffffff166323b872dd868686604051602401610b5a93929190611322565b604051602081830303815290604052915060e01b6020820180517bffffffffffffffffffffffffffffffffffffffffffffffffffffffff8381831617835250505050610cf2565b50505050565b610baf610d94565b73ffffffffffffffffffffffffffffffffffffffff16610bcd61070e565b73ffffffffffffffffffffffffffffffffffffffff1614610c2c57610bf0610d94565b6040517f118cdaa7000000000000000000000000000000000000000000000000000000008152600401610c239190610f92565b60405180910390fd5b565b60008060009054906101000a900473ffffffffffffffffffffffffffffffffffffffff169050816000806101000a81548173ffffffffffffffffffffffffffffffffffffffff021916908373ffffffffffffffffffffffffffffffffffffffff1602179055508173ffffffffffffffffffffffffffffffffffffffff168173ffffffffffffffffffffffffffffffffffffffff167f8be0079c531659141344cd1fd0a4f28419497f9722a3daafe3b4186f6b6457e060405160405180910390a35050565b600080602060008451602086016000885af180610d15576040513d6000823e3d81fd5b3d925060005191505060008214610d30576001811415610d4c565b60008473ffffffffffffffffffffffffffffffffffffffff163b145b15610d8e57836040517f5274afe7000000000000000000000000000000000000000000000000000000008152600401610d859190610f92565b60405180910390fd5b50505050565b600033905090565b60405180608001604052806000815260200160008152602001600081526020016000151581525090565b600080fd5b6000819050919050565b610dde81610dcb565b8114610de957600080fd5b50565b600081359050610dfb81610dd5565b92915050565b600060208284031215610e1757610e16610dc6565b5b6000610e2584828501610dec565b91505092915050565b600073ffffffffffffffffffffffffffffffffffffffff82169050919050565b6000610e5982610e2e565b9050919050565b610e6981610e4e565b8114610e7457600080fd5b50565b600081359050610e8681610e60565b92915050565b60008060408385031215610ea357610ea2610dc6565b5b6000610eb185828601610e77565b9250506020610ec285828601610dec565b9150509250929050565b610ed581610dcb565b82525050565b60008115159050919050565b610ef081610edb565b82525050565b6000608082019050610f0b6000830187610ecc565b610f186020830186610ecc565b610f256040830185610ecc565b610f326060830184610ee7565b95945050505050565b600060208284031215610f5157610f50610dc6565b5b6000610f5f84828501610e77565b91505092915050565b6000602082019050610f7d6000830184610ecc565b92915050565b610f8c81610e4e565b82525050565b6000602082019050610fa76000830184610f83565b92915050565b610fb681610dcb565b82525050565b610fc581610edb565b82525050565b608082016000820151610fe16000850182610fad565b506020820151610ff46020850182610fad565b5060408201516110076040850182610fad565b50606082015161101a6060850182610fbc565b50505050565b60006080820190506110356000830184610fcb565b92915050565b7f4e487b7100000000000000000000000000000000000000000000000000000000600052603260045260246000fd5b7f4e487b7100000000000000000000000000000000000000000000000000000000600052601160045260246000fd5b60006110a482610dcb565b91506110af83610dcb565b92508282019050808211156110c7576110c661106a565b5b92915050565b60006110d882610dcb565b91506110e383610dcb565b92508282039050818111156110fb576110fa61106a565b5b92915050565b60006060820190506111166000830186610ecc565b6111236020830185610ecc565b6111306040830184610ecc565b949350505050565b600082825260208201905092915050565b7f43616e6e6f74207769746864726177206c6f636b65642045434d20746f6b656e60008201527f7300000000000000000000000000000000000000000000000000000000000000602082015250565b60006111a5602183611138565b91506111b082611149565b604082019050919050565b600060208201905081810360008301526111d481611198565b9050919050565b7f496e73756666696369656e742045544800000000000000000000000000000000600082015250565b6000611211601083611138565b915061121c826111db565b602082019050919050565b6000602082019050818103600083015261124081611204565b9050919050565b600081905092915050565b50565b6000611262600083611247565b915061126d82611252565b600082019050919050565b600061128382611255565b9150819050919050565b7f455448207472616e73666572206661696c656400000000000000000000000000600082015250565b60006112c3601383611138565b91506112ce8261128d565b602082019050919050565b600060208201905081810360008301526112f2816112b6565b9050919050565b600060408201905061130e6000830185610f83565b61131b6020830184610ecc565b9392505050565b60006060820190506113376000830186610f83565b6113446020830185610f83565b6113516040830184610ecc565b94935050505056fea2646970667358221220edd0990b38a88eef9106670e59e448e8eb57728a570288d45b49c038139b02ef64736f6c634300081c0033",
  "linkReferences": {},
  "deployedLinkReferences": {}
}